:10000E004D616E75616C3A2020202020202020202A
:10001E0000202020202020202020202020202020F2
:10002E00202020004D75736963313A207E7E20209A
:10003E002020202020004D75736963323A207E7E89
:10004E00202020202020200057656C636F6D6520D6
:10005E00746F004D7573696320626F78210053656C
:10006E006C656374206D6F64653A2020202020003B
:10007E0059656C3A4D616E204772653A4175746FE1
:10008E0020202020004175746F6D617469633A20E1
:10009E0020202020202020003030300000000000E2
:1000AE000000646F2D0000000000000072652D003E
:1000BE000000000000006D692D000000000000002F
:1000CE0066612D00000000000000736F2D0000001F
:1000DE00000000006C612D0000000000000073693C
:1000EE002D00000000000000646F200000000000E2
:1000FE000000646F20000000000000007265200008
:10010E000000000000006D692000000000000000EB
:10011E0066612000000000000000736F20000000E8
:10012E00000000006C6120000000000000007369F8
:10013E002000000000000000646F2B000000000093
:10014E0000000000F88CF8F3F95BF9B8FA15FA67BD
:10015E00FAB9FB04FB4BFB90FBCFFC10FC46FC7981
:10016E00FCAEFCDCFD0AFD34FD5CFD82FDA6FDC887
:10017E00FDE8FE08FE23FE3DFE57FE6EFE85FE9A4E
:10018E00FEAEFEC1FED3FEE4FEF4FF040004000446
:10019E000004160218021906180219041D04180C80
:1001AE00110211021606140216041904140C11047D
:1001BE001206110212041904110800021902190282
:1001CE001902180613021304180418080004160264
:1001DE0018021906180219041D04180C1102110236
:1001EE001606140216041906140C0F02110212043C
:1001FE001902180419061B021B021D02190A190204
:10020E0018021602160218041504160C19021B0207
:10021E001D061B021D0420041B0C140214021906D9
:10022E00180219041D041D0C1602180219041804D4
:10023E001B021B021906140A1E041D041B041904BA
:10024E001D0C1D042208200420041D021B02190887
:10025E00000219021B0419021B021B0420041D0CB0
:10026E001D04220820081D021B0219080002190293
:10027E001B0419021B061804160C16021802FF0D99
:10028E00020F020A020802140616021102140219C3
:10029E00021602140814041602140211020F02119F
:1002AE0004140211020A020D020F080F02140211A9
:1002BE00020D020A0408020A020F021602140216A6
:1002CE000211060F020D020F010F0111021401148B
:1002DE000119021602140414020A020D020F021270
:1002EE0006160116011403160111020F020D080D58
:1002FE000800041402140219081B0619021602192A
:10030E000214021802160814041104190416031616
:10031E0001140216020D020F02110811041102142B
:10032E00021604160219021B041D0219021B0619DD
:10033E00021B0211021402160218021B011B0116E7
:10034E0002180214101B02180216021402110214D3
:10035E0001140116021B021910FF0D010F011102EB
:10036E00190214021B0314011D01140120022002A4
:10037E0019021D0219021E021D0219040D010F01A0
:10038E001102190214021B0314011D011401200293
:0F039E00200219021D0219021E021D021904FF7E
:10096A0020220A000000BE00AA0097008F007F0024
:10097A00710064005F005F0055004B0047003F00B4
:05098A00380032002FCF
:100826008E2F8F307BFF7A00790E7D017F011209B2
:1008360090E530452F60467BFF7A00791F7D017F6A
:1008460002120990753502AB30AA2F7D017F021284
:1008560008CCAE2FAF307C007D0A1206A174A62FFD
:10086600F974003EFA7BFF7D047F02120990E530A1
:0E08760025E0240AF8E6FE08E6FF1209B32288
:0C056A008E2F8F30E5306401452F704F5C
:10057600F53120B44AE5306401452F70427BFF7A9D
:100586000079327D017F02120990E53190019A933C
:10059600FFF460208F2E0531E5319375F07DA4FFC1
:1005A600AEF0120A110531C28C7F057E00120A11C7
:0F05B600D28C80BEC28CE4F52EF52FF53080B3C9
:0805C500E5306402452F704F80
:1005CD00F53120B44AE5306402452F70427BFF7A45
:1005DD000079447D017F02120990E53190028D93DF
:1005ED00FFF460208F2E0531E5319375F07DA4FF6A
:1005FD00AEF0120A110531C28C7F057E00120A1170
:0F060D00D28C80BEC28CE4F52EF52FF53080B371
:08061C00E5306403452F704F27
:10062400F53120B44AE5306403452F70427BFF7AEC
:100634000079447D017F02120990E53190036893AB
:10064400FFF460208F2E0531E5319375F07DA4FF12
:10065400AEF0120A110531C28C7F057E00120A1118
:0F066400D28C80BEC28CE4F52EF52FF53080B31A
:010673002264
:10070800120A257BFF7A0079567D047F0112099031
:100718007BFF7A0079617D047F021209907FDC7E7D
:1007280005120A117BFF7A00796C7D017F0112099D
:10073800907BFF7A00797E7D017F021209907FDC31
:100748007E05120A11D2B5D2B4120909EE4F24FF60
:1007580092B5120909EE4F24FFB392B420B50F12D7
:1007680003AD752C008F2DAE2C12082680D720B42F
:10077800D41203AD7508008F097BFF7A0079937D49
:10078800017F011209901209E4AF09AE0812056A47
:0207980080B32C
:03000B0002088464
:10088400C0E0C083C082C0D075D000C006E52E256C
:10089400E02450F582E43401F5837401937002E49A
:1008A40093601AE52E25E02450F582E43401F583A3
:1008B400E493FE740193F58AEEF58CB2B7D006D0BA
:0808C400D0D082D083D0E032D5
:100A1100EF4E600F7D027CEFDCFEDDFCEF1F70F01E
:030A21001E80ED47
:010A240022AF
:1003AD00E4F52FD293D292D291D290D2A3D2A2D2EF
:1003BD00A1D2A0C29020A3137F14FE120A1130A364
:1003CD00FD7F147E00120A11752F0120A2147F14D7
:1003DD007E00120A1130A2FD7F147E00120A1175E3
:1003ED002F0520A1147F147E00120A1130A1FD7F6C
:1003FD00147E00120A11752F0920A0147F147E009F
:10040D00120A1130A0FD7F147E00120A11752F0DF6
:10041D00D293D292D291D290D2A3D2A2D2A1D2A073
:10042D00C29120A3147F147E00120A1130A3FD7F08
:10043D00147E00120A11752F0220A2147F147E0063
:10044D00120A1130A2FD7F147E00120A11752F06BB
:10045D0020A1147F147E00120A1130A1FD7F147E9D
:10046D0000120A11752F0A20A0147F147E00120AA3
:10047D001130A0FD7F147E00120A11752F0ED2933C
:10048D00D292D291D290D2A3D2A2D2A1D2A0C29214
:10049D0020A3147F147E00120A1130A3FD7F147E59
:1004AD0000120A11752F0320A2147F147E00120A68
:1004BD001130A2FD7F147E00120A11752F0720A1A5
:1004CD00147F147E00120A1130A1FD7F147E0012DC
:1004DD000A11752F0B20A0147F147E00120A113003
:1004ED00A0FD7F147E00120A11752F0FD293D292A8
:1004FD00D291D290D2A3D2A2D2A1D2A0C29320A344
:10050D00147F147E00120A1130A3FD7F147E001299
:10051D000A11752F0420A2147F147E00120A1130C7
:10052D00A2FD7F147E00120A11752F0820A1147FE1
:10053D00147E00120A1130A1FD7F147E00120A11E3
:10054D00752F0C20A0147F147E00120A1130A0FD0F
:0C055D007F147E00120A11752F10AF2FC2
:01056900226F
:060A3900C2A68F80D2A5C9
:080A3F007F027EEFDEFEDFFC0A
:010A4700228C
:0A0A4800C2A7120A39C2A5020A3F34
:0A0A5200D2A7120A39C2A5020A3F1A
:1009FB00AE07BE0104ED148006BE0209ED243F4490
:060A0B0080FF120A4822E0
:100A25007F38120A487F0C120A487F06120A487F4F
:040A350001020A4868
:0A0A5C00AC031209FBAF04020A52BA
:060990008B328A3389342A
:100996001209FBE4FDAB32AA33A9348D82758300BC
:0C09A600120674FF6006120A520D80E970
:0109B2002222
:080943008E368F378C388D3998
:10094B007F017E00E4FBEBC39539E5386480F874D6
:0E095B008098500AAC36AD371206A10B80E82A
:01096900226B
:0408CC008A338B34AC
:1008D0001209FBAA35EAD39400402DEA24FFFDE477
:1008E00034FFFC7F0A7E00120943AC33AD34CFCD18
:1008F000CFCECCCE1206B37C007D0A1206B3ED2417
:0809000030FF120A521A80CDEB
:0109080022CC
:0A09CD00EF1FAC0670011E4C600C19
:0C09D700007531021531E53160EC80F84C
:0109E30022F1
:0409B300AB07AA06DE
:1009B700900000B2B7AF03AE021209CDA3E582647F
:0509C7005A458370EEAB
:0109CC002208
:1009090020B3187F147E00120A1130B3FD7F147EC4
:1009190000120A11E4F53AF53B801A20B2177F1448
:100929007E00120A1130B2FD7F147E00120A117581
:0A0939003A00753B01AE3AAF3B22D5
:1009E4005389F0438901758A18758CFCC28DD28CA9
:0709F400D2A9D2AFC2B92263
:0300000002079A5A
:0C079A00787FE4F6D8FD75813B0207E192
:10067400BB010CE58229F582E5833AF583E022503B
:1006840006E92582F8E622BBFE06E92582F8E22285
:0D069400E58229F582E5833AF583E493229F
:1006A100EF8DF0A4A8F0CF8CF0A428CE8DF0A42E6D
:0206B100FE2227
:1006B300BC000BBE0029EF8DF084FFADF022E4CC2B
:1006C300F875F008EF2FFFEE33FEEC33FCEE9DECF4
:1006D300984005FCEE9DFE0FD5F0E9E4CEFD22ED3A
:1006E300F8F5F0EE8420D21CFEADF075F008EF2F84
:1006F300FFED33FD4007985006D5F0F222C398FD75
:050703000FD5F0EA2211
:1007A600020708E493A3F8E493A34003F68001F25A
:1007B60008DFF48029E493A3F85407240CC8C33354
:1007C600C4540F4420C8834004F456800146F6DF23
:1007D600E4800B010204081020408090096AE47E40
:1007E600019360BCA3FF543F30E509541FFEE49318
:1007F600A360010ECF54C025E060A840B8E493A3DF
:10080600FAE493A3F8E493A3C8C582C8CAC583CA09
:10081600F0A3C8C582C8CAC583CADFE9DEE780BEC1
:01098F000067
:00000001FF
